{
  "_format": "hh-sol-artifact-1",
  "contractName": "A",
  "sourceName": "contracts/delegate1.sol",
  "abi": [
    {
      "inputs": [
        {
          "internalType": "address",
          "name": "_contractCalled",
          "type": "address"
        }
      ],
      "stateMutability": "nonpayable",
      "type": "constructor"
    },
    {
      "inputs": [],
      "name": "contractCalled",
      "outputs": [
        {
          "internalType": "address",
          "name": "",
          "type": "address"
        }
      ],
      "stateMutability": "view",
      "type": "function"
    },
    {
      "inputs": [],
      "name": "num",
      "outputs": [
        {
          "internalType": "uint256",
          "name": "",
          "type": "uint256"
        }
      ],
      "stateMutability": "view",
      "type": "function"
    },
    {
      "inputs": [],
      "name": "sender",
      "outputs": [
        {
          "internalType": "address",
          "name": "",
          "type": "address"
        }
      ],
      "stateMutability": "view",
      "type": "function"
    },
    {
      "inputs": [
        {
          "internalType": "uint256",
          "name": "_num",
          "type": "uint256"
        }
      ],
      "name": "setVars",
      "outputs": [],
      "stateMutability": "payable",
      "type": "function"
    },
    {
      "inputs": [
        {
          "internalType": "uint256",
          "name": "_num",
          "type": "uint256"
        }
      ],
      "name": "setVarsTested",
      "outputs": [],
      "stateMutability": "payable",
      "type": "function"
    },
    {
      "inputs": [],
      "name": "value",
      "outputs": [
        {
          "internalType": "uint256",
          "name": "",
          "type": "uint256"
        }
      ],
      "stateMutability": "view",
      "type": "function"
    }
  ],
  "bytecode": "0x608060405234801561001057600080fd5b5060405161069c38038061069c833981810160405281019061003291906100dc565b80600360006101000a81548173ffffffffffffffffffffffffffffffffffffffff021916908373ffffffffffffffffffffffffffffffffffffffff16021790555050610109565b600080fd5b600073ffffffffffffffffffffffffffffffffffffffff82169050919050565b60006100a98261007e565b9050919050565b6100b98161009e565b81146100c457600080fd5b50565b6000815190506100d6816100b0565b92915050565b6000602082840312156100f2576100f1610079565b5b6000610100848285016100c7565b91505092915050565b610584806101186000396000f3fe6080604052600436106100555760003560e01c80633fa4f2451461005a5780634e70b1dc146100855780636466414b146100b057806367e404ce146100cc5780638838b8a1146100f75780638f8f704214610113575b600080fd5b34801561006657600080fd5b5061006f61013e565b60405161007c91906103f1565b60405180910390f35b34801561009157600080fd5b5061009a610144565b6040516100a791906103f1565b60405180910390f35b6100ca60048036038101906100c5919061043d565b61014a565b005b3480156100d857600080fd5b506100e161026b565b6040516100ee91906104ab565b60405180910390f35b610111600480360381019061010c919061043d565b610291565b005b34801561011f57600080fd5b506101286103b2565b60405161013591906104ab565b60405180910390f35b60025481565b60005481565b600080600360009054906101000a900473ffffffffffffffffffffffffffffffffffffffff1673ffffffffffffffffffffffffffffffffffffffff168360405160240161019791906103f1565b6040516020818303038152906040527f724d87a9000000000000000000000000000000000000000000000000000000007bffffffffffffffffffffffffffffffffffffffffffffffffffffffff19166020820180517bffffffffffffffffffffffffffffffffffffffffffffffffffffffff83818316178352505050506040516102219190610537565b600060405180830381855af49150503d806000811461025c576040519150601f19603f3d011682016040523d82523d6000602084013e610261565b606091505b5091509150505050565b600160009054906101000a900473ffffffffffffffffffffffffffffffffffffffff1681565b600080600360009054906101000a900473ffffffffffffffffffffffffffffffffffffffff1673ffffffffffffffffffffffffffffffffffffffff16836040516024016102de91906103f1565b6040516020818303038152906040527f0ef50a05000000000000000000000000000000000000000000000000000000007bffffffffffffffffffffffffffffffffffffffffffffffffffffffff19166020820180517bffffffffffffffffffffffffffffffffffffffffffffffffffffffff83818316178352505050506040516103689190610537565b600060405180830381855af49150503d80600081146103a3576040519150601f19603f3d011682016040523d82523d6000602084013e6103a8565b606091505b5091509150505050565b600360009054906101000a900473ffffffffffffffffffffffffffffffffffffffff1681565b6000819050919050565b6103eb816103d8565b82525050565b600060208201905061040660008301846103e2565b92915050565b600080fd5b61041a816103d8565b811461042557600080fd5b50565b60008135905061043781610411565b92915050565b6000602082840312156104535761045261040c565b5b600061046184828501610428565b91505092915050565b600073ffffffffffffffffffffffffffffffffffffffff82169050919050565b60006104958261046a565b9050919050565b6104a58161048a565b82525050565b60006020820190506104c0600083018461049c565b92915050565b600081519050919050565b600081905092915050565b60005b838110156104fa5780820151818401526020810190506104df565b60008484015250505050565b6000610511826104c6565b61051b81856104d1565b935061052b8185602086016104dc565b80840191505092915050565b60006105438284610506565b91508190509291505056fea2646970667358221220d1c4e920401ce01d80b640a59b92ca69d8d81fef8f8458b5f769fd3b65a1849164736f6c63430008110033",
  "linkReferences": {},
  "deployedLinkReferences": {}
}