{
  "_format": "hh-sol-artifact-1",
  "contractName": "B",
  "sourceName": "contracts/delegate1.sol",
  "abi": [
    {
      "inputs": [
        {
          "internalType": "address",
          "name": "_contractActuallyCalled",
          "type": "address"
        }
      ],
      "stateMutability": "nonpayable",
      "type": "constructor"
    },
    {
      "inputs": [],
      "name": "contractActuallyCalled",
      "outputs": [
        {
          "internalType": "address",
          "name": "",
          "type": "address"
        }
      ],
      "stateMutability": "view",
      "type": "function"
    },
    {
      "inputs": [],
      "name": "num",
      "outputs": [
        {
          "internalType": "uint256",
          "name": "",
          "type": "uint256"
        }
      ],
      "stateMutability": "view",
      "type": "function"
    },
    {
      "inputs": [],
      "name": "sender",
      "outputs": [
        {
          "internalType": "address",
          "name": "",
          "type": "address"
        }
      ],
      "stateMutability": "view",
      "type": "function"
    },
    {
      "inputs": [
        {
          "internalType": "uint256",
          "name": "_num",
          "type": "uint256"
        }
      ],
      "name": "setVars",
      "outputs": [],
      "stateMutability": "payable",
      "type": "function"
    },
    {
      "inputs": [
        {
          "internalType": "uint256",
          "name": "_num",
          "type": "uint256"
        }
      ],
      "name": "setVars1",
      "outputs": [],
      "stateMutability": "payable",
      "type": "function"
    },
    {
      "inputs": [
        {
          "internalType": "uint256",
          "name": "_num",
          "type": "uint256"
        }
      ],
      "name": "setVarsNoDel",
      "outputs": [],
      "stateMutability": "payable",
      "type": "function"
    },
    {
      "inputs": [],
      "name": "value",
      "outputs": [
        {
          "internalType": "uint256",
          "name": "",
          "type": "uint256"
        }
      ],
      "stateMutability": "view",
      "type": "function"
    }
  ],
  "bytecode": "0x608060405234801561001057600080fd5b506040516106c23803806106c2833981810160405281019061003291906100dc565b80600360006101000a81548173ffffffffffffffffffffffffffffffffffffffff021916908373ffffffffffffffffffffffffffffffffffffffff16021790555050610109565b600080fd5b600073ffffffffffffffffffffffffffffffffffffffff82169050919050565b60006100a98261007e565b9050919050565b6100b98161009e565b81146100c457600080fd5b50565b6000815190506100d6816100b0565b92915050565b6000602082840312156100f2576100f1610079565b5b6000610100848285016100c7565b91505092915050565b6105aa806101186000396000f3fe6080604052600436106100705760003560e01c80636466414b1161004e5780636466414b146100e757806367e404ce14610103578063724d87a91461012e578063ae9d4fb41461014a57610070565b80630ef50a05146100755780633fa4f245146100915780634e70b1dc146100bc575b600080fd5b61008f600480360381019061008a91906103d9565b610175565b005b34801561009d57600080fd5b506100a66101c7565b6040516100b39190610415565b60405180910390f35b3480156100c857600080fd5b506100d16101cd565b6040516100de9190610415565b60405180910390f35b61010160048036038101906100fc91906103d9565b6101d3565b005b34801561010f57600080fd5b50610118610231565b6040516101259190610471565b60405180910390f35b610148600480360381019061014391906103d9565b610257565b005b34801561015657600080fd5b5061015f610378565b60405161016c9190610471565b60405180910390f35b8060008190555033600160006101000a81548173ffffffffffffffffffffffffffffffffffffffff021916908373ffffffffffffffffffffffffffffffffffffffff1602179055503460028190555050565b60025481565b60005481565b6002816101e091906104bb565b60028190555033600160006101000a81548173ffffffffffffffffffffffffffffffffffffffff021916908373ffffffffffffffffffffffffffffffffffffffff1602179055503460028190555050565b600160009054906101000a900473ffffffffffffffffffffffffffffffffffffffff1681565b600080600360009054906101000a900473ffffffffffffffffffffffffffffffffffffffff1673ffffffffffffffffffffffffffffffffffffffff16836040516024016102a49190610415565b6040516020818303038152906040527f6466414b000000000000000000000000000000000000000000000000000000007bffffffffffffffffffffffffffffffffffffffffffffffffffffffff19166020820180517bffffffffffffffffffffffffffffffffffffffffffffffffffffffff838183161783525050505060405161032e919061055d565b600060405180830381855af49150503d8060008114610369576040519150601f19603f3d011682016040523d82523d6000602084013e61036e565b606091505b5091509150505050565b600360009054906101000a900473ffffffffffffffffffffffffffffffffffffffff1681565b600080fd5b6000819050919050565b6103b6816103a3565b81146103c157600080fd5b50565b6000813590506103d3816103ad565b92915050565b6000602082840312156103ef576103ee61039e565b5b60006103fd848285016103c4565b91505092915050565b61040f816103a3565b82525050565b600060208201905061042a6000830184610406565b92915050565b600073ffffffffffffffffffffffffffffffffffffffff82169050919050565b600061045b82610430565b9050919050565b61046b81610450565b82525050565b60006020820190506104866000830184610462565b92915050565b7f4e487b7100000000000000000000000000000000000000000000000000000000600052601260045260246000fd5b60006104c6826103a3565b91506104d1836103a3565b9250826104e1576104e061048c565b5b828204905092915050565b600081519050919050565b600081905092915050565b60005b83811015610520578082015181840152602081019050610505565b60008484015250505050565b6000610537826104ec565b61054181856104f7565b9350610551818560208601610502565b80840191505092915050565b6000610569828461052c565b91508190509291505056fea264697066735822122099a4e1a537aeefe47df59701bb4d42843fe776656ad5f5b95724f3b7a0ae3dca64736f6c63430008110033",
  "linkReferences": {},
  "deployedLinkReferences": {}
}