{
  "_format": "hh-sol-artifact-1",
  "contractName": "haddi",
  "sourceName": "contracts/delegate1.sol",
  "abi": [
    {
      "inputs": [],
      "name": "contractActuallyCalledNotUsed",
      "outputs": [
        {
          "internalType": "address",
          "name": "",
          "type": "address"
        }
      ],
      "stateMutability": "view",
      "type": "function"
    },
    {
      "inputs": [],
      "name": "num",
      "outputs": [
        {
          "internalType": "uint256",
          "name": "",
          "type": "uint256"
        }
      ],
      "stateMutability": "view",
      "type": "function"
    },
    {
      "inputs": [],
      "name": "sender",
      "outputs": [
        {
          "internalType": "address",
          "name": "",
          "type": "address"
        }
      ],
      "stateMutability": "view",
      "type": "function"
    },
    {
      "inputs": [
        {
          "internalType": "uint256",
          "name": "_num",
          "type": "uint256"
        }
      ],
      "name": "setVars",
      "outputs": [],
      "stateMutability": "payable",
      "type": "function"
    },
    {
      "inputs": [],
      "name": "value",
      "outputs": [
        {
          "internalType": "uint256",
          "name": "",
          "type": "uint256"
        }
      ],
      "stateMutability": "view",
      "type": "function"
    }
  ],
  "bytecode": "0x608060405234801561001057600080fd5b506102e5806100206000396000f3fe60806040526004361061004a5760003560e01c80633fa4f2451461004f5780634e70b1dc1461007a5780636466414b146100a557806367e404ce146100c15780639197eab3146100ec575b600080fd5b34801561005b57600080fd5b50610064610117565b60405161007191906101da565b60405180910390f35b34801561008657600080fd5b5061008f61011d565b60405161009c91906101da565b60405180910390f35b6100bf60048036038101906100ba9190610226565b610123565b005b3480156100cd57600080fd5b506100d6610175565b6040516100e39190610294565b60405180910390f35b3480156100f857600080fd5b5061010161019b565b60405161010e9190610294565b60405180910390f35b60025481565b60005481565b8060008190555033600160006101000a81548173ffffffffffffffffffffffffffffffffffffffff021916908373ffffffffffffffffffffffffffffffffffffffff1602179055503460028190555050565b600160009054906101000a900473ffffffffffffffffffffffffffffffffffffffff1681565b600360009054906101000a900473ffffffffffffffffffffffffffffffffffffffff1681565b6000819050919050565b6101d4816101c1565b82525050565b60006020820190506101ef60008301846101cb565b92915050565b600080fd5b610203816101c1565b811461020e57600080fd5b50565b600081359050610220816101fa565b92915050565b60006020828403121561023c5761023b6101f5565b5b600061024a84828501610211565b91505092915050565b600073ffffffffffffffffffffffffffffffffffffffff82169050919050565b600061027e82610253565b9050919050565b61028e81610273565b82525050565b60006020820190506102a96000830184610285565b9291505056fea2646970667358221220a77d59971b681f80c17af54e4d60d7bdb473f6e7cdb1eacbeffdd6dc81ec12d164736f6c63430008110033",
  "linkReferences": {},
  "deployedLinkReferences": {}
}